{
  "contractName": "Arti",
  "abi": [
    {
      "inputs": [],
      "stateMutability": "nonpayable",
      "type": "constructor"
    },
    {
      "anonymous": false,
      "inputs": [
        {
          "indexed": true,
          "internalType": "address",
          "name": "owner",
          "type": "address"
        },
        {
          "indexed": true,
          "internalType": "address",
          "name": "approved",
          "type": "address"
        },
        {
          "indexed": true,
          "internalType": "uint256",
          "name": "tokenId",
          "type": "uint256"
        }
      ],
      "name": "Approval",
      "type": "event"
    },
    {
      "anonymous": false,
      "inputs": [
        {
          "indexed": true,
          "internalType": "address",
          "name": "owner",
          "type": "address"
        },
        {
          "indexed": true,
          "internalType": "address",
          "name": "operator",
          "type": "address"
        },
        {
          "indexed": false,
          "internalType": "bool",
          "name": "approved",
          "type": "bool"
        }
      ],
      "name": "ApprovalForAll",
      "type": "event"
    },
    {
      "anonymous": false,
      "inputs": [
        {
          "indexed": true,
          "internalType": "address",
          "name": "from",
          "type": "address"
        },
        {
          "indexed": true,
          "internalType": "address",
          "name": "to",
          "type": "address"
        },
        {
          "indexed": true,
          "internalType": "uint256",
          "name": "tokenId",
          "type": "uint256"
        }
      ],
      "name": "Transfer",
      "type": "event"
    },
    {
      "inputs": [
        {
          "internalType": "address",
          "name": "to",
          "type": "address"
        },
        {
          "internalType": "uint256",
          "name": "tokenId",
          "type": "uint256"
        }
      ],
      "name": "approve",
      "outputs": [],
      "stateMutability": "nonpayable",
      "type": "function"
    },
    {
      "inputs": [
        {
          "internalType": "address",
          "name": "owner",
          "type": "address"
        }
      ],
      "name": "balanceOf",
      "outputs": [
        {
          "internalType": "uint256",
          "name": "",
          "type": "uint256"
        }
      ],
      "stateMutability": "view",
      "type": "function",
      "constant": true
    },
    {
      "inputs": [
        {
          "internalType": "uint256",
          "name": "tokenId",
          "type": "uint256"
        }
      ],
      "name": "getApproved",
      "outputs": [
        {
          "internalType": "address",
          "name": "",
          "type": "address"
        }
      ],
      "stateMutability": "view",
      "type": "function",
      "constant": true
    },
    {
      "inputs": [
        {
          "internalType": "address",
          "name": "owner",
          "type": "address"
        },
        {
          "internalType": "address",
          "name": "operator",
          "type": "address"
        }
      ],
      "name": "isApprovedForAll",
      "outputs": [
        {
          "internalType": "bool",
          "name": "",
          "type": "bool"
        }
      ],
      "stateMutability": "view",
      "type": "function",
      "constant": true
    },
    {
      "inputs": [],
      "name": "name",
      "outputs": [
        {
          "internalType": "string",
          "name": "",
          "type": "string"
        }
      ],
      "stateMutability": "view",
      "type": "function",
      "constant": true
    },
    {
      "inputs": [
        {
          "internalType": "uint256",
          "name": "tokenId",
          "type": "uint256"
        }
      ],
      "name": "ownerOf",
      "outputs": [
        {
          "internalType": "address",
          "name": "",
          "type": "address"
        }
      ],
      "stateMutability": "view",
      "type": "function",
      "constant": true
    },
    {
      "inputs": [
        {
          "internalType": "address",
          "name": "from",
          "type": "address"
        },
        {
          "internalType": "address",
          "name": "to",
          "type": "address"
        },
        {
          "internalType": "uint256",
          "name": "tokenId",
          "type": "uint256"
        }
      ],
      "name": "safeTransferFrom",
      "outputs": [],
      "stateMutability": "nonpayable",
      "type": "function"
    },
    {
      "inputs": [
        {
          "internalType": "address",
          "name": "from",
          "type": "address"
        },
        {
          "internalType": "address",
          "name": "to",
          "type": "address"
        },
        {
          "internalType": "uint256",
          "name": "tokenId",
          "type": "uint256"
        },
        {
          "internalType": "bytes",
          "name": "_data",
          "type": "bytes"
        }
      ],
      "name": "safeTransferFrom",
      "outputs": [],
      "stateMutability": "nonpayable",
      "type": "function"
    },
    {
      "inputs": [
        {
          "internalType": "address",
          "name": "operator",
          "type": "address"
        },
        {
          "internalType": "bool",
          "name": "approved",
          "type": "bool"
        }
      ],
      "name": "setApprovalForAll",
      "outputs": [],
      "stateMutability": "nonpayable",
      "type": "function"
    },
    {
      "inputs": [
        {
          "internalType": "bytes4",
          "name": "interfaceId",
          "type": "bytes4"
        }
      ],
      "name": "supportsInterface",
      "outputs": [
        {
          "internalType": "bool",
          "name": "",
          "type": "bool"
        }
      ],
      "stateMutability": "view",
      "type": "function",
      "constant": true
    },
    {
      "inputs": [],
      "name": "symbol",
      "outputs": [
        {
          "internalType": "string",
          "name": "",
          "type": "string"
        }
      ],
      "stateMutability": "view",
      "type": "function",
      "constant": true
    },
    {
      "inputs": [
        {
          "internalType": "uint256",
          "name": "tokenId",
          "type": "uint256"
        }
      ],
      "name": "tokenURI",
      "outputs": [
        {
          "internalType": "string",
          "name": "",
          "type": "string"
        }
      ],
      "stateMutability": "view",
      "type": "function",
      "constant": true
    },
    {
      "inputs": [
        {
          "internalType": "address",
          "name": "from",
          "type": "address"
        },
        {
          "internalType": "address",
          "name": "to",
          "type": "address"
        },
        {
          "internalType": "uint256",
          "name": "tokenId",
          "type": "uint256"
        }
      ],
      "name": "transferFrom",
      "outputs": [],
      "stateMutability": "nonpayable",
      "type": "function"
    },
    {
      "inputs": [
        {
          "internalType": "address",
          "name": "artist",
          "type": "address"
        }
      ],
      "name": "awardToken",
      "outputs": [
        {
          "internalType": "uint256",
          "name": "",
          "type": "uint256"
        }
      ],
      "stateMutability": "nonpayable",
      "type": "function"
    }
  ],
  "bytecode": "0x60806040523480156200001157600080fd5b506040518060400160405280600481526020017f41727469000000000000000000000000000000000000000000000000000000008152506040518060400160405280600481526020017f4172746900000000000000000000000000000000000000000000000000000000815250816000908051906020019062000096929190620000b8565b508060019080519060200190620000af929190620000b8565b505050620001cd565b828054620000c69062000168565b90600052602060002090601f016020900481019282620000ea576000855562000136565b82601f106200010557805160ff191683800117855562000136565b8280016001018555821562000136579182015b828111156200013557825182559160200191906001019062000118565b5b50905062000145919062000149565b5090565b5b80821115620001645760008160009055506001016200014a565b5090565b600060028204905060018216806200018157607f821691505b602082108114156200019857620001976200019e565b5b50919050565b7f4e487b7100000000000000000000000000000000000000000000000000000000600052602260045260246000fd5b6128f280620001dd6000396000f3fe608060405234801561001057600080fd5b50600436106100ea5760003560e01c806370a082311161008c578063b88d4fde11610066578063b88d4fde1461025b578063c87b56dd14610277578063dba98e5b146102a7578063e985e9c5146102d7576100ea565b806370a08231146101f157806395d89b4114610221578063a22cb4651461023f576100ea565b8063095ea7b3116100c8578063095ea7b31461016d57806323b872dd1461018957806342842e0e146101a55780636352211e146101c1576100ea565b806301ffc9a7146100ef57806306fdde031461011f578063081812fc1461013d575b600080fd5b61010960048036038101906101049190611a13565b610307565b6040516101169190611e02565b60405180910390f35b6101276103e9565b6040516101349190611e1d565b60405180910390f35b61015760048036038101906101529190611a6d565b61047b565b6040516101649190611d9b565b60405180910390f35b610187600480360381019061018291906119d3565b610500565b005b6101a3600480360381019061019e91906118bd565b610618565b005b6101bf60048036038101906101ba91906118bd565b610678565b005b6101db60048036038101906101d69190611a6d565b610698565b6040516101e89190611d9b565b60405180910390f35b61020b60048036038101906102069190611850565b61074a565b604051610218919061201f565b60405180910390f35b610229610802565b6040516102369190611e1d565b60405180910390f35b61025960048036038101906102549190611993565b610894565b005b61027560048036038101906102709190611910565b610a15565b005b610291600480360381019061028c9190611a6d565b610a77565b60405161029e9190611e1d565b60405180910390f35b6102c160048036038101906102bc9190611850565b610bc9565b6040516102ce919061201f565b60405180910390f35b6102f160048036038101906102ec919061187d565b610bf6565b6040516102fe9190611e02565b60405180910390f35b60007f80ac58cd000000000000000000000000000000000000000000000000000000007bffffffffffffffffffffffffffffffffffffffffffffffffffffffff1916827bffffffffffffffffffffffffffffffffffffffffffffffffffffffff191614806103d257507f5b5e139f000000000000000000000000000000000000000000000000000000007bffffffffffffffffffffffffffffffffffffffffffffffffffffffff1916827bffffffffffffffffffffffffffffffffffffffffffffffffffffffff1916145b806103e257506103e182610c8a565b5b9050919050565b6060600080546103f890612244565b80601f016020809104026020016040519081016040528092919081815260200182805461042490612244565b80156104715780601f1061044657610100808354040283529160200191610471565b820191906000526020600020905b81548152906001019060200180831161045457829003601f168201915b5050505050905090565b600061048682610cf4565b6104c5576040517f08c379a00000000000000000000000000000000000000000000000000000000081526004016104bc90611f7f565b60405180910390fd5b6004600083815260200190815260200160002060009054906101000a900473ffffffffffffffffffffffffffffffffffffffff169050919050565b600061050b82610698565b90508073ffffffffffffffffffffffffffffffffffffffff168373ffffffffffffffffffffffffffffffffffffffff16141561057c576040517f08c379a000000000000000000000000000000000000000000000000000000000815260040161057390611fdf565b60405180910390fd5b8073ffffffffffffffffffffffffffffffffffffffff1661059b610d60565b73ffffffffffffffffffffffffffffffffffffffff1614806105ca57506105c9816105c4610d60565b610bf6565b5b610609576040517f08c379a000000000000000000000000000000000000000000000000000000000815260040161060090611edf565b60405180910390fd5b6106138383610d68565b505050565b610629610623610d60565b82610e21565b610668576040517f08c379a000000000000000000000000000000000000000000000000000000000815260040161065f90611fff565b60405180910390fd5b610673838383610eff565b505050565b61069383838360405180602001604052806000815250610a15565b505050565b6000806002600084815260200190815260200160002060009054906101000a900473ffffffffffffffffffffffffffffffffffffffff169050600073ffffffffffffffffffffffffffffffffffffffff168173ffffffffffffffffffffffffffffffffffffffff161415610741576040517f08c379a000000000000000000000000000000000000000000000000000000000815260040161073890611f1f565b60405180910390fd5b80915050919050565b60008073ffffffffffffffffffffffffffffffffffffffff168273ffffffffffffffffffffffffffffffffffffffff1614156107bb576040517f08c379a00000000000000000000000000000000000000000000000000000000081526004016107b290611eff565b60405180910390fd5b600360008373ffffffffffffffffffffffffffffffffffffffff1673ffffffffffffffffffffffffffffffffffffffff168152602001908152602001600020549050919050565b60606001805461081190612244565b80601f016020809104026020016040519081016040528092919081815260200182805461083d90612244565b801561088a5780601f1061085f5761010080835404028352916020019161088a565b820191906000526020600020905b81548152906001019060200180831161086d57829003601f168201915b5050505050905090565b61089c610d60565b73ffffffffffffffffffffffffffffffffffffffff168273ffffffffffffffffffffffffffffffffffffffff16141561090a576040517f08c379a000000000000000000000000000000000000000000000000000000000815260040161090190611e9f565b60405180910390fd5b8060056000610917610d60565b73ffffffffffffffffffffffffffffffffffffffff1673ffffffffffffffffffffffffffffffffffffffff16815260200190815260200160002060008473ffffffffffffffffffffffffffffffffffffffff1673ffffffffffffffffffffffffffffffffffffffff16815260200190815260200160002060006101000a81548160ff0219169083151502179055508173ffffffffffffffffffffffffffffffffffffffff166109c4610d60565b73ffffffffffffffffffffffffffffffffffffffff167f17307eab39ab6107e8899845ad3d59bd9653f200f220920489ca2b5937696c3183604051610a099190611e02565b60405180910390a35050565b610a26610a20610d60565b83610e21565b610a65576040517f08c379a0000000000000000000000000000000000000000000000000000000008152600401610a5c90611fff565b60405180910390fd5b610a718484848461115b565b50505050565b6060610a8282610cf4565b610ac1576040517f08c379a0000000000000000000000000000000000000000000000000000000008152600401610ab890611f5f565b60405180910390fd5b6000600660008481526020019081526020016000208054610ae190612244565b80601f0160208091040260200160405190810160405280929190818152602001828054610b0d90612244565b8015610b5a5780601f10610b2f57610100808354040283529160200191610b5a565b820191906000526020600020905b815481529060010190602001808311610b3d57829003601f168201915b505050505090506000610b6b6111b7565b9050600081511415610b81578192505050610bc4565b600082511115610bb6578082604051602001610b9e929190611d77565b60405160208183030381529060405292505050610bc4565b610bbf846111ce565b925050505b919050565b6000610bd56007611275565b6000610be1600761128b565b9050610bed8382611299565b80915050919050565b6000600560008473ffffffffffffffffffffffffffffffffffffffff1673ffffffffffffffffffffffffffffffffffffffff16815260200190815260200160002060008373ffffffffffffffffffffffffffffffffffffffff1673ffffffffffffffffffffffffffffffffffffffff16815260200190815260200160002060009054906101000a900460ff16905092915050565b60007f01ffc9a7000000000000000000000000000000000000000000000000000000007bffffffffffffffffffffffffffffffffffffffffffffffffffffffff1916827bffffffffffffffffffffffffffffffffffffffffffffffffffffffff1916149050919050565b60008073ffffffffffffffffffffffffffffffffffffffff166002600084815260200190815260200160002060009054906101000a900473ffffffffffffffffffffffffffffffffffffffff1673ffffffffffffffffffffffffffffffffffffffff1614159050919050565b600033905090565b816004600083815260200190815260200160002060006101000a81548173ffffffffffffffffffffffffffffffffffffffff021916908373ffffffffffffffffffffffffffffffffffffffff160217905550808273ffffffffffffffffffffffffffffffffffffffff16610ddb83610698565b73ffffffffffffffffffffffffffffffffffffffff167f8c5be1e5ebec7d5bd14f71427d1e84f3dd0314c0f7b2291e5b200ac8c7c3b92560405160405180910390a45050565b6000610e2c82610cf4565b610e6b576040517f08c379a0000000000000000000000000000000000000000000000000000000008152600401610e6290611ebf565b60405180910390fd5b6000610e7683610698565b90508073ffffffffffffffffffffffffffffffffffffffff168473ffffffffffffffffffffffffffffffffffffffff161480610ee557508373ffffffffffffffffffffffffffffffffffffffff16610ecd8461047b565b73ffffffffffffffffffffffffffffffffffffffff16145b80610ef65750610ef58185610bf6565b5b91505092915050565b8273ffffffffffffffffffffffffffffffffffffffff16610f1f82610698565b73ffffffffffffffffffffffffffffffffffffffff1614610f75576040517f08c379a0000000000000000000000000000000000000000000000000000000008152600401610f6c90611f9f565b60405180910390fd5b600073ffffffffffffffffffffffffffffffffffffffff168273ffffffffffffffffffffffffffffffffffffffff161415610fe5576040517f08c379a0000000000000000000000000000000000000000000000000000000008152600401610fdc90611e7f565b60405180910390fd5b610ff0838383611467565b610ffb600082610d68565b6001600360008573ffffffffffffffffffffffffffffffffffffffff1673ffffffffffffffffffffffffffffffffffffffff168152602001908152602001600020600082825461104b919061215a565b925050819055506001600360008473ffffffffffffffffffffffffffffffffffffffff1673ffffffffffffffffffffffffffffffffffffffff16815260200190815260200160002060008282546110a291906120d3565b92505081905550816002600083815260200190815260200160002060006101000a81548173ffffffffffffffffffffffffffffffffffffffff021916908373ffffffffffffffffffffffffffffffffffffffff160217905550808273ffffffffffffffffffffffffffffffffffffffff168473ffffffffffffffffffffffffffffffffffffffff167fddf252ad1be2c89b69c2b068fc378daa952ba7f163c4a11628f55a4df523b3ef60405160405180910390a4505050565b611166848484610eff565b6111728484848461146c565b6111b1576040517f08c379a00000000000000000000000000000000000000000000000000000000081526004016111a890611e3f565b60405180910390fd5b50505050565b606060405180602001604052806000815250905090565b60606111d982610cf4565b611218576040517f08c379a000000000000000000000000000000000000000000000000000000000815260040161120f90611fbf565b60405180910390fd5b60006112226111b7565b90506000815111611242576040518060200160405280600081525061126d565b8061124c84611603565b60405160200161125d929190611d77565b6040516020818303038152906040525b915050919050565b6001816000016000828254019250508190555050565b600081600001549050919050565b600073ffffffffffffffffffffffffffffffffffffffff168273ffffffffffffffffffffffffffffffffffffffff161415611309576040517f08c379a000000000000000000000000000000000000000000000000000000000815260040161130090611f3f565b60405180910390fd5b61131281610cf4565b15611352576040517f08c379a000000000000000000000000000000000000000000000000000000000815260040161134990611e5f565b60405180910390fd5b61135e60008383611467565b6001600360008473ffffffffffffffffffffffffffffffffffffffff1673ffffffffffffffffffffffffffffffffffffffff16815260200190815260200160002060008282546113ae91906120d3565b92505081905550816002600083815260200190815260200160002060006101000a81548173ffffffffffffffffffffffffffffffffffffffff021916908373ffffffffffffffffffffffffffffffffffffffff160217905550808273ffffffffffffffffffffffffffffffffffffffff16600073ffffffffffffffffffffffffffffffffffffffff167fddf252ad1be2c89b69c2b068fc378daa952ba7f163c4a11628f55a4df523b3ef60405160405180910390a45050565b505050565b600061148d8473ffffffffffffffffffffffffffffffffffffffff16611764565b156115f6578373ffffffffffffffffffffffffffffffffffffffff1663150b7a026114b6610d60565b8786866040518563ffffffff1660e01b81526004016114d89493929190611db6565b602060405180830381600087803b1580156114f257600080fd5b505af192505050801561152357506040513d601f19601f820116820180604052508101906115209190611a40565b60015b6115a6573d8060008114611553576040519150601f19603f3d011682016040523d82523d6000602084013e611558565b606091505b5060008151141561159e576040517f08c379a000000000000000000000000000000000000000000000000000000000815260040161159590611e3f565b60405180910390fd5b805181602001fd5b63150b7a0260e01b7bffffffffffffffffffffffffffffffffffffffffffffffffffffffff1916817bffffffffffffffffffffffffffffffffffffffffffffffffffffffff1916149150506115fb565b600190505b949350505050565b6060600082141561164b576040518060400160405280600181526020017f3000000000000000000000000000000000000000000000000000000000000000815250905061175f565b600082905060005b6000821461167d578080611666906122a7565b915050600a826116769190612129565b9150611653565b60008167ffffffffffffffff811115611699576116986123dd565b5b6040519080825280601f01601f1916602001820160405280156116cb5781602001600182028036833780820191505090505b5090505b60008514611758576001826116e4919061215a565b9150600a856116f391906122f0565b60306116ff91906120d3565b60f81b818381518110611715576117146123ae565b5b60200101907effffffffffffffffffffffffffffffffffffffffffffffffffffffffffffff1916908160001a905350600a856117519190612129565b94506116cf565b8093505050505b919050565b600080823b905060008111915050919050565b600061178a6117858461205f565b61203a565b9050828152602081018484840111156117a6576117a5612411565b5b6117b1848285612202565b509392505050565b6000813590506117c881612860565b92915050565b6000813590506117dd81612877565b92915050565b6000813590506117f28161288e565b92915050565b6000815190506118078161288e565b92915050565b600082601f8301126118225761182161240c565b5b8135611832848260208601611777565b91505092915050565b60008135905061184a816128a5565b92915050565b6000602082840312156118665761186561241b565b5b6000611874848285016117b9565b91505092915050565b600080604083850312156118945761189361241b565b5b60006118a2858286016117b9565b92505060206118b3858286016117b9565b9150509250929050565b6000806000606084860312156118d6576118d561241b565b5b60006118e4868287016117b9565b93505060206118f5868287016117b9565b92505060406119068682870161183b565b9150509250925092565b6000806000806080858703121561192a5761192961241b565b5b6000611938878288016117b9565b9450506020611949878288016117b9565b935050604061195a8782880161183b565b925050606085013567ffffffffffffffff81111561197b5761197a612416565b5b6119878782880161180d565b91505092959194509250565b600080604083850312156119aa576119a961241b565b5b60006119b8858286016117b9565b92505060206119c9858286016117ce565b9150509250929050565b600080604083850312156119ea576119e961241b565b5b60006119f8858286016117b9565b9250506020611a098582860161183b565b9150509250929050565b600060208284031215611a2957611a2861241b565b5b6000611a37848285016117e3565b91505092915050565b600060208284031215611a5657611a5561241b565b5b6000611a64848285016117f8565b91505092915050565b600060208284031215611a8357611a8261241b565b5b6000611a918482850161183b565b91505092915050565b611aa38161218e565b82525050565b611ab2816121a0565b82525050565b6000611ac382612090565b611acd81856120a6565b9350611add818560208601612211565b611ae681612420565b840191505092915050565b6000611afc8261209b565b611b0681856120b7565b9350611b16818560208601612211565b611b1f81612420565b840191505092915050565b6000611b358261209b565b611b3f81856120c8565b9350611b4f818560208601612211565b80840191505092915050565b6000611b686032836120b7565b9150611b7382612431565b604082019050919050565b6000611b8b601c836120b7565b9150611b9682612480565b602082019050919050565b6000611bae6024836120b7565b9150611bb9826124a9565b604082019050919050565b6000611bd16019836120b7565b9150611bdc826124f8565b602082019050919050565b6000611bf4602c836120b7565b9150611bff82612521565b604082019050919050565b6000611c176038836120b7565b9150611c2282612570565b604082019050919050565b6000611c3a602a836120b7565b9150611c45826125bf565b604082019050919050565b6000611c5d6029836120b7565b9150611c688261260e565b604082019050919050565b6000611c806020836120b7565b9150611c8b8261265d565b602082019050919050565b6000611ca36031836120b7565b9150611cae82612686565b604082019050919050565b6000611cc6602c836120b7565b9150611cd1826126d5565b604082019050919050565b6000611ce96029836120b7565b9150611cf482612724565b604082019050919050565b6000611d0c602f836120b7565b9150611d1782612773565b604082019050919050565b6000611d2f6021836120b7565b9150611d3a826127c2565b604082019050919050565b6000611d526031836120b7565b9150611d5d82612811565b604082019050919050565b611d71816121f8565b82525050565b6000611d838285611b2a565b9150611d8f8284611b2a565b91508190509392505050565b6000602082019050611db06000830184611a9a565b92915050565b6000608082019050611dcb6000830187611a9a565b611dd86020830186611a9a565b611de56040830185611d68565b8181036060830152611df78184611ab8565b905095945050505050565b6000602082019050611e176000830184611aa9565b92915050565b60006020820190508181036000830152611e378184611af1565b905092915050565b60006020820190508181036000830152611e5881611b5b565b9050919050565b60006020820190508181036000830152611e7881611b7e565b9050919050565b60006020820190508181036000830152611e9881611ba1565b9050919050565b60006020820190508181036000830152611eb881611bc4565b9050919050565b60006020820190508181036000830152611ed881611be7565b9050919050565b60006020820190508181036000830152611ef881611c0a565b9050919050565b60006020820190508181036000830152611f1881611c2d565b9050919050565b60006020820190508181036000830152611f3881611c50565b9050919050565b60006020820190508181036000830152611f5881611c73565b9050919050565b60006020820190508181036000830152611f7881611c96565b9050919050565b60006020820190508181036000830152611f9881611cb9565b9050919050565b60006020820190508181036000830152611fb881611cdc565b9050919050565b60006020820190508181036000830152611fd881611cff565b9050919050565b60006020820190508181036000830152611ff881611d22565b9050919050565b6000602082019050818103600083015261201881611d45565b9050919050565b60006020820190506120346000830184611d68565b92915050565b6000612044612055565b90506120508282612276565b919050565b6000604051905090565b600067ffffffffffffffff82111561207a576120796123dd565b5b61208382612420565b9050602081019050919050565b600081519050919050565b600081519050919050565b600082825260208201905092915050565b600082825260208201905092915050565b600081905092915050565b60006120de826121f8565b91506120e9836121f8565b9250827fffffffffffffffffffffffffffffffffffffffffffffffffffffffffffffffff0382111561211e5761211d612321565b5b828201905092915050565b6000612134826121f8565b915061213f836121f8565b92508261214f5761214e612350565b5b828204905092915050565b6000612165826121f8565b9150612170836121f8565b92508282101561218357612182612321565b5b828203905092915050565b6000612199826121d8565b9050919050565b60008115159050919050565b60007fffffffff0000000000000000000000000000000000000000000000000000000082169050919050565b600073ffffffffffffffffffffffffffffffffffffffff82169050919050565b6000819050919050565b82818337600083830152505050565b60005b8381101561222f578082015181840152602081019050612214565b8381111561223e576000848401525b50505050565b6000600282049050600182168061225c57607f821691505b602082108114156122705761226f61237f565b5b50919050565b61227f82612420565b810181811067ffffffffffffffff8211171561229e5761229d6123dd565b5b80604052505050565b60006122b2826121f8565b91507fffffffffffffffffffffffffffffffffffffffffffffffffffffffffffffffff8214156122e5576122e4612321565b5b600182019050919050565b60006122fb826121f8565b9150612306836121f8565b92508261231657612315612350565b5b828206905092915050565b7f4e487b7100000000000000000000000000000000000000000000000000000000600052601160045260246000fd5b7f4e487b7100000000000000000000000000000000000000000000000000000000600052601260045260246000fd5b7f4e487b7100000000000000000000000000000000000000000000000000000000600052602260045260246000fd5b7f4e487b7100000000000000000000000000000000000000000000000000000000600052603260045260246000fd5b7f4e487b7100000000000000000000000000000000000000000000000000000000600052604160045260246000fd5b600080fd5b600080fd5b600080fd5b600080fd5b6000601f19601f8301169050919050565b7f4552433732313a207472616e7366657220746f206e6f6e20455243373231526560008201527f63656976657220696d706c656d656e7465720000000000000000000000000000602082015250565b7f4552433732313a20746f6b656e20616c7265616479206d696e74656400000000600082015250565b7f4552433732313a207472616e7366657220746f20746865207a65726f2061646460008201527f7265737300000000000000000000000000000000000000000000000000000000602082015250565b7f4552433732313a20617070726f766520746f2063616c6c657200000000000000600082015250565b7f4552433732313a206f70657261746f7220717565727920666f72206e6f6e657860008201527f697374656e7420746f6b656e0000000000000000000000000000000000000000602082015250565b7f4552433732313a20617070726f76652063616c6c6572206973206e6f74206f7760008201527f6e6572206e6f7220617070726f76656420666f7220616c6c0000000000000000602082015250565b7f4552433732313a2062616c616e636520717565727920666f7220746865207a6560008201527f726f206164647265737300000000000000000000000000000000000000000000602082015250565b7f4552433732313a206f776e657220717565727920666f72206e6f6e657869737460008201527f656e7420746f6b656e0000000000000000000000000000000000000000000000602082015250565b7f4552433732313a206d696e7420746f20746865207a65726f2061646472657373600082015250565b7f45524337323155524953746f726167653a2055524920717565727920666f722060008201527f6e6f6e6578697374656e7420746f6b656e000000000000000000000000000000602082015250565b7f4552433732313a20617070726f76656420717565727920666f72206e6f6e657860008201527f697374656e7420746f6b656e0000000000000000000000000000000000000000602082015250565b7f4552433732313a207472616e73666572206f6620746f6b656e2074686174206960008201527f73206e6f74206f776e0000000000000000000000000000000000000000000000602082015250565b7f4552433732314d657461646174613a2055524920717565727920666f72206e6f60008201527f6e6578697374656e7420746f6b656e0000000000000000000000000000000000602082015250565b7f4552433732313a20617070726f76616c20746f2063757272656e74206f776e6560008201527f7200000000000000000000000000000000000000000000000000000000000000602082015250565b7f4552433732313a207472616e736665722063616c6c6572206973206e6f74206f60008201527f776e6572206e6f7220617070726f766564000000000000000000000000000000602082015250565b6128698161218e565b811461287457600080fd5b50565b612880816121a0565b811461288b57600080fd5b50565b612897816121ac565b81146128a257600080fd5b50565b6128ae816121f8565b81146128b957600080fd5b5056fea2646970667358221220ca541c36047d66d62ebeac22377283b5b9823810c7d0fb83a52f63169e76a89c64736f6c63430008060033",
  "immutableReferences": {},
  "source": "// contracts/Arti.sol\n// SPDX-License-Identifier: MIT\npragma solidity ^0.8.0;\n\nimport '@openzeppelin/contracts/token/ERC721/extensions/ERC721URIStorage.sol';\nimport '@openzeppelin/contracts/utils/Counters.sol';\n\ncontract Arti is ERC721URIStorage {\n    using Counters for Counters.Counter;\n    Counters.Counter private _tokenIds;\n\n    constructor() ERC721('Arti', 'Arti') {}\n\n    function awardToken(address artist) public returns (uint256) {\n        _tokenIds.increment();\n\n        uint256 newTokenId = _tokenIds.current();\n        _mint(artist, newTokenId);\n\n        return newTokenId;\n    }\n}\n",
  "sourcePath": "/Users/bluekim/workspace/arti-project/test/contracts/Arti.sol",
  "compiler": {
    "name": "solc",
    "version": "0.8.6+commit.11564f7e.Emscripten.clang"
  },
  "schemaVersion": "3.4.2",
  "updatedAt": "2021-08-04T09:47:23.398Z",
  "networkType": "ethereum",
  "devdoc": {
    "kind": "dev",
    "methods": {
      "approve(address,uint256)": {
        "details": "See {IERC721-approve}."
      },
      "balanceOf(address)": {
        "details": "See {IERC721-balanceOf}."
      },
      "getApproved(uint256)": {
        "details": "See {IERC721-getApproved}."
      },
      "isApprovedForAll(address,address)": {
        "details": "See {IERC721-isApprovedForAll}."
      },
      "name()": {
        "details": "See {IERC721Metadata-name}."
      },
      "ownerOf(uint256)": {
        "details": "See {IERC721-ownerOf}."
      },
      "safeTransferFrom(address,address,uint256)": {
        "details": "See {IERC721-safeTransferFrom}."
      },
      "safeTransferFrom(address,address,uint256,bytes)": {
        "details": "See {IERC721-safeTransferFrom}."
      },
      "setApprovalForAll(address,bool)": {
        "details": "See {IERC721-setApprovalForAll}."
      },
      "supportsInterface(bytes4)": {
        "details": "See {IERC165-supportsInterface}."
      },
      "symbol()": {
        "details": "See {IERC721Metadata-symbol}."
      },
      "tokenURI(uint256)": {
        "details": "See {IERC721Metadata-tokenURI}."
      },
      "transferFrom(address,address,uint256)": {
        "details": "See {IERC721-transferFrom}."
      }
    },
    "version": 1
  },
  "userdoc": {
    "kind": "user",
    "methods": {},
    "version": 1
  }
}